{
  "contractName": "ContractHash",
  "abi": [
    {
      "inputs": [],
      "stateMutability": "nonpayable",
      "type": "constructor"
    },
    {
      "anonymous": false,
      "inputs": [
        {
          "indexed": false,
          "internalType": "string",
          "name": "action",
          "type": "string"
        }
      ],
      "name": "FileAlreadyExistsEvent",
      "type": "event"
    },
    {
      "anonymous": false,
      "inputs": [
        {
          "indexed": false,
          "internalType": "string",
          "name": "action",
          "type": "string"
        }
      ],
      "name": "FileUploadedEvent",
      "type": "event"
    },
    {
      "inputs": [],
      "name": "count",
      "outputs": [
        {
          "internalType": "uint256",
          "name": "",
          "type": "uint256"
        }
      ],
      "stateMutability": "view",
      "type": "function",
      "constant": true
    },
    {
      "inputs": [
        {
          "internalType": "uint256",
          "name": "fileNo",
          "type": "uint256"
        }
      ],
      "name": "getHash",
      "outputs": [
        {
          "internalType": "string",
          "name": "",
          "type": "string"
        }
      ],
      "stateMutability": "view",
      "type": "function",
      "constant": true
    },
    {
      "inputs": [
        {
          "internalType": "uint256",
          "name": "fileNo",
          "type": "uint256"
        }
      ],
      "name": "getFileName",
      "outputs": [
        {
          "internalType": "string",
          "name": "",
          "type": "string"
        }
      ],
      "stateMutability": "view",
      "type": "function",
      "constant": true
    },
    {
      "inputs": [
        {
          "internalType": "uint256",
          "name": "fileNo",
          "type": "uint256"
        }
      ],
      "name": "getOwner",
      "outputs": [
        {
          "internalType": "address",
          "name": "",
          "type": "address"
        }
      ],
      "stateMutability": "view",
      "type": "function",
      "constant": true
    },
    {
      "inputs": [
        {
          "internalType": "string",
          "name": "Hash",
          "type": "string"
        }
      ],
      "name": "getFileNo",
      "outputs": [
        {
          "internalType": "uint256",
          "name": "",
          "type": "uint256"
        }
      ],
      "stateMutability": "view",
      "type": "function",
      "constant": true
    },
    {
      "inputs": [
        {
          "internalType": "string",
          "name": "Hash",
          "type": "string"
        }
      ],
      "name": "checkFile",
      "outputs": [
        {
          "internalType": "bool",
          "name": "",
          "type": "bool"
        }
      ],
      "stateMutability": "view",
      "type": "function",
      "constant": true
    },
    {
      "inputs": [
        {
          "internalType": "string",
          "name": "fileHash",
          "type": "string"
        },
        {
          "internalType": "string",
          "name": "fileName",
          "type": "string"
        }
      ],
      "name": "uploadFile",
      "outputs": [],
      "stateMutability": "nonpayable",
      "type": "function"
    }
  ],
  "bytecode": "0x608060405234801561001057600080fd5b5060008081905550610d12806100276000396000f3fe608060405234801561001057600080fd5b506004361061007d5760003560e01c8063983a70081161005b578063983a700814610100578063996d50bf14610130578063c41a360a1461014c578063ed7c238d1461017c5761007d565b806306661abd1461008257806312df278f146100a05780636b2fafa9146100d0575b600080fd5b61008a6101ac565b6040516100979190610693565b60405180910390f35b6100ba60048036038101906100b59190610808565b6101b2565b6040516100c7919061086c565b60405180910390f35b6100ea60048036038101906100e591906108b3565b6101ed565b6040516100f79190610968565b60405180910390f35b61011a60048036038101906101159190610808565b610295565b6040516101279190610693565b60405180910390f35b61014a6004803603810190610145919061098a565b6102bd565b005b610166600480360381019061016191906108b3565b6104f2565b6040516101739190610a43565b60405180910390f35b610196600480360381019061019191906108b3565b61052f565b6040516101a39190610968565b60405180910390f35b60005481565b6000806002836040516101c59190610a9a565b90815260200160405180910390205411156101e357600190506101e8565b600090505b919050565b606060016000838152602001908152602001600020600101805461021090610ae0565b80601f016020809104026020016040519081016040528092919081815260200182805461023c90610ae0565b80156102895780601f1061025e57610100808354040283529160200191610289565b820191906000526020600020905b81548152906001019060200180831161026c57829003601f168201915b50505050509050919050565b60006002826040516102a79190610a9a565b9081526020016040518091039020549050919050565b600015156102ca836101b2565b151514801561034057503373ffffffffffffffffffffffffffffffffffffffff16600360006102f885610295565b815260200190815260200160002060009054906101000a900473ffffffffffffffffffffffffffffffffffffffff1673ffffffffffffffffffffffffffffffffffffffff1614155b156104b8576040518060600160405280600160005461035f9190610b40565b8152602001838152602001828152506001600060016000546103819190610b40565b81526020019081526020016000206000820151816000015560208201518160010190805190602001906103b59291906105d7565b5060408201518160020190805190602001906103d29291906105d7565b50905050336003600060016000546103ea9190610b40565b815260200190815260200160002060006101000a81548173ffffffffffffffffffffffffffffffffffffffff021916908373ffffffffffffffffffffffffffffffffffffffff16021790555060016000546104459190610b40565b6002836040516104559190610a9a565b90815260200160405180910390208190555060008081548092919061047990610b96565b91905055507f21a22d48994b8e9dabb9fb8053acb036a4e710256199d513817bc2e561dd553d6040516104ab90610c2a565b60405180910390a16104ee565b7f63787c4402facf500cb9fa0b1b87233f3bb5e2a151c00a38e33ecc360dd0fbf26040516104e590610cbc565b60405180910390a15b5050565b60006003600083815260200190815260200160002060009054906101000a900473ffffffffffffffffffffffffffffffffffffffff169050919050565b606060016000838152602001908152602001600020600201805461055290610ae0565b80601f016020809104026020016040519081016040528092919081815260200182805461057e90610ae0565b80156105cb5780601f106105a0576101008083540402835291602001916105cb565b820191906000526020600020905b8154815290600101906020018083116105ae57829003601f168201915b50505050509050919050565b8280546105e390610ae0565b90600052602060002090601f016020900481019282610605576000855561064c565b82601f1061061e57805160ff191683800117855561064c565b8280016001018555821561064c579182015b8281111561064b578251825591602001919060010190610630565b5b509050610659919061065d565b5090565b5b8082111561067657600081600090555060010161065e565b5090565b6000819050919050565b61068d8161067a565b82525050565b60006020820190506106a86000830184610684565b92915050565b6000604051905090565b600080fd5b600080fd5b600080fd5b600080fd5b6000601f19601f8301169050919050565b7f4e487b7100000000000000000000000000000000000000000000000000000000600052604160045260246000fd5b610715826106cc565b810181811067ffffffffffffffff82111715610734576107336106dd565b5b80604052505050565b60006107476106ae565b9050610753828261070c565b919050565b600067ffffffffffffffff821115610773576107726106dd565b5b61077c826106cc565b9050602081019050919050565b82818337600083830152505050565b60006107ab6107a684610758565b61073d565b9050828152602081018484840111156107c7576107c66106c7565b5b6107d2848285610789565b509392505050565b600082601f8301126107ef576107ee6106c2565b5b81356107ff848260208601610798565b91505092915050565b60006020828403121561081e5761081d6106b8565b5b600082013567ffffffffffffffff81111561083c5761083b6106bd565b5b610848848285016107da565b91505092915050565b60008115159050919050565b61086681610851565b82525050565b6000602082019050610881600083018461085d565b92915050565b6108908161067a565b811461089b57600080fd5b50565b6000813590506108ad81610887565b92915050565b6000602082840312156108c9576108c86106b8565b5b60006108d78482850161089e565b91505092915050565b600081519050919050565b600082825260208201905092915050565b60005b8381101561091a5780820151818401526020810190506108ff565b83811115610929576000848401525b50505050565b600061093a826108e0565b61094481856108eb565b93506109548185602086016108fc565b61095d816106cc565b840191505092915050565b60006020820190508181036000830152610982818461092f565b905092915050565b600080604083850312156109a1576109a06106b8565b5b600083013567ffffffffffffffff8111156109bf576109be6106bd565b5b6109cb858286016107da565b925050602083013567ffffffffffffffff8111156109ec576109eb6106bd565b5b6109f8858286016107da565b9150509250929050565b600073ffffffffffffffffffffffffffffffffffffffff82169050919050565b6000610a2d82610a02565b9050919050565b610a3d81610a22565b82525050565b6000602082019050610a586000830184610a34565b92915050565b600081905092915050565b6000610a74826108e0565b610a7e8185610a5e565b9350610a8e8185602086016108fc565b80840191505092915050565b6000610aa68284610a69565b915081905092915050565b7f4e487b7100000000000000000000000000000000000000000000000000000000600052602260045260246000fd5b60006002820490506001821680610af857607f821691505b602082108103610b0b57610b0a610ab1565b5b50919050565b7f4e487b7100000000000000000000000000000000000000000000000000000000600052601160045260246000fd5b6000610b4b8261067a565b9150610b568361067a565b9250827fffffffffffffffffffffffffffffffffffffffffffffffffffffffffffffffff03821115610b8b57610b8a610b11565b5b828201905092915050565b6000610ba18261067a565b91507fffffffffffffffffffffffffffffffffffffffffffffffffffffffffffffffff8203610bd357610bd2610b11565b5b600182019050919050565b7f46696c652055706c6f61646564205375636365737366756c6c79000000000000600082015250565b6000610c14601a836108eb565b9150610c1f82610bde565b602082019050919050565b60006020820190508181036000830152610c4381610c07565b9050919050565b7f46696c6520416c72656164792045786973747320696e20426c6f636b6368616960008201527f6e00000000000000000000000000000000000000000000000000000000000000602082015250565b6000610ca66021836108eb565b9150610cb182610c4a565b604082019050919050565b60006020820190508181036000830152610cd581610c99565b905091905056fea2646970667358221220ca63892ad2682f2e233bde4f810dd953c97af48917b7765e354773c0aa0b6a4d64736f6c634300080e0033",
  "immutableReferences": {},
  "source": "// SPDX-License-Identifier: MIT\npragma solidity >=0.4.22 <0.9.0;\n\ncontract ContractHash{\n\n    uint256 public count; // number of files stored in the blockchain\n\n    struct File {\n        uint256 serialNo;\n        string Hash;\n        string FileName;\n    }\n\n    event FileUploadedEvent(string action);\n    event FileAlreadyExistsEvent(string action);\n\n    mapping (uint256 => File) HashList; // mapping to retrive a hash from serial number\n    mapping (string => uint256) FileNoList; // mapping to retrive the serial number from the hash\n    mapping (uint256 => address) OwnerOf; //mapping the serial number to the owner of the file\n    // using bidirectional mapping to ensure that hash and serial number can be retrieved at any time\n\n    constructor() {\n        count = 0;\n    }\n\n    function getHash(uint256 fileNo) public view returns (string memory){\n        return HashList[fileNo].Hash;\n    }\n\n    function getFileName(uint256 fileNo) public view returns (string memory){\n        return HashList[fileNo].FileName;\n    }\n\n    function getOwner(uint256 fileNo) public view returns (address){\n        return OwnerOf[fileNo];\n    }\n\n    function getFileNo(string memory Hash) public view returns (uint256){\n        return FileNoList[Hash];\n    }\n\n    function checkFile(string memory Hash) public view returns (bool){\n        if(FileNoList[Hash] > 0) return true;\n        else return false;\n    }\n\n    function uploadFile(string memory fileHash, string memory fileName) public {\n        //uploading the hash only if the file hasn't already been uploaded\n        if(checkFile(fileHash)==false && OwnerOf[getFileNo(fileHash)] !=  msg.sender){\n            HashList[count+1] = File(count+1,fileHash,fileName);\n            OwnerOf[count+1] = msg.sender;\n            FileNoList[fileHash] = count+1;\n            count++;\n            emit FileUploadedEvent(\"File Uploaded Successfully\");\n        }\n        else {\n            emit FileAlreadyExistsEvent(\"File Already Exists in Blockchain\");\n        }\n    }\n}",
  "sourcePath": "/Users/premrajendran/Desktop/SmartBlocks/contracts/ContractHash.sol",
  "compiler": {
    "name": "solc",
    "version": "0.8.14+commit.80d49f37.Emscripten.clang"
  },
  "schemaVersion": "3.4.7",
  "updatedAt": "2022-08-01T10:34:08.521Z",
  "networkType": "ethereum",
  "devdoc": {
    "kind": "dev",
    "methods": {},
    "version": 1
  },
  "userdoc": {
    "kind": "user",
    "methods": {},
    "version": 1
  }
}