{
  "contractName": "ContractHash",
  "abi": [
    {
      "inputs": [],
      "stateMutability": "nonpayable",
      "type": "constructor"
    },
    {
      "anonymous": false,
      "inputs": [
        {
          "indexed": false,
          "internalType": "string",
          "name": "action",
          "type": "string"
        },
        {
          "indexed": false,
          "internalType": "address",
          "name": "uploader",
          "type": "address"
        }
      ],
      "name": "FileUploadedEvent",
      "type": "event"
    },
    {
      "inputs": [],
      "name": "count",
      "outputs": [
        {
          "internalType": "uint256",
          "name": "",
          "type": "uint256"
        }
      ],
      "stateMutability": "view",
      "type": "function",
      "constant": true
    },
    {
      "inputs": [
        {
          "internalType": "uint256",
          "name": "fileNo",
          "type": "uint256"
        }
      ],
      "name": "getHash",
      "outputs": [
        {
          "internalType": "string",
          "name": "",
          "type": "string"
        }
      ],
      "stateMutability": "view",
      "type": "function",
      "constant": true
    },
    {
      "inputs": [
        {
          "internalType": "string",
          "name": "Hash",
          "type": "string"
        }
      ],
      "name": "getFileNo",
      "outputs": [
        {
          "internalType": "uint256",
          "name": "",
          "type": "uint256"
        }
      ],
      "stateMutability": "view",
      "type": "function",
      "constant": true
    },
    {
      "inputs": [
        {
          "internalType": "string",
          "name": "Hash",
          "type": "string"
        }
      ],
      "name": "checkFile",
      "outputs": [
        {
          "internalType": "bool",
          "name": "",
          "type": "bool"
        }
      ],
      "stateMutability": "view",
      "type": "function",
      "constant": true
    },
    {
      "inputs": [
        {
          "internalType": "string",
          "name": "fileHash",
          "type": "string"
        }
      ],
      "name": "uploadFile",
      "outputs": [],
      "stateMutability": "nonpayable",
      "type": "function"
    }
  ],
  "bytecode": "0x608060405234801561001057600080fd5b5060008081905550610910806100276000396000f3fe608060405234801561001057600080fd5b50600436106100575760003560e01c806306661abd1461005c57806312df278f1461007a5780636b2fafa9146100aa578063983a7008146100da578063e37ffc301461010a575b600080fd5b610064610126565b60405161007191906103a8565b60405180910390f35b610094600480360381019061008f919061051d565b61012c565b6040516100a19190610581565b60405180910390f35b6100c460048036038101906100bf91906105c8565b610167565b6040516100d1919061067d565b60405180910390f35b6100f460048036038101906100ef919061051d565b61020c565b60405161010191906103a8565b60405180910390f35b610124600480360381019061011f919061051d565b610234565b005b60005481565b60008060028360405161013f91906106db565b908152602001604051809103902054111561015d5760019050610162565b600090505b919050565b606060016000838152602001908152602001600020805461018790610721565b80601f01602080910402602001604051908101604052809291908181526020018280546101b390610721565b80156102005780601f106101d557610100808354040283529160200191610200565b820191906000526020600020905b8154815290600101906020018083116101e357829003601f168201915b50505050509050919050565b600060028260405161021e91906106db565b9081526020016040518091039020549050919050565b806001600060016000546102489190610781565b815260200190815260200160002090805190602001906102699291906102ec565b5060016000546102799190610781565b60028260405161028991906106db565b9081526020016040518091039020819055506000808154809291906102ad906107d7565b91905055507f09b4a9d4e432544073816c687a5a6d6e5c8ef151a3cc55eabab7de7ca2ecdc45336040516102e191906108ac565b60405180910390a150565b8280546102f890610721565b90600052602060002090601f01602090048101928261031a5760008555610361565b82601f1061033357805160ff1916838001178555610361565b82800160010185558215610361579182015b82811115610360578251825591602001919060010190610345565b5b50905061036e9190610372565b5090565b5b8082111561038b576000816000905550600101610373565b5090565b6000819050919050565b6103a28161038f565b82525050565b60006020820190506103bd6000830184610399565b92915050565b6000604051905090565b600080fd5b600080fd5b600080fd5b600080fd5b6000601f19601f8301169050919050565b7f4e487b7100000000000000000000000000000000000000000000000000000000600052604160045260246000fd5b61042a826103e1565b810181811067ffffffffffffffff82111715610449576104486103f2565b5b80604052505050565b600061045c6103c3565b90506104688282610421565b919050565b600067ffffffffffffffff821115610488576104876103f2565b5b610491826103e1565b9050602081019050919050565b82818337600083830152505050565b60006104c06104bb8461046d565b610452565b9050828152602081018484840111156104dc576104db6103dc565b5b6104e784828561049e565b509392505050565b600082601f830112610504576105036103d7565b5b81356105148482602086016104ad565b91505092915050565b600060208284031215610533576105326103cd565b5b600082013567ffffffffffffffff811115610551576105506103d2565b5b61055d848285016104ef565b91505092915050565b60008115159050919050565b61057b81610566565b82525050565b60006020820190506105966000830184610572565b92915050565b6105a58161038f565b81146105b057600080fd5b50565b6000813590506105c28161059c565b92915050565b6000602082840312156105de576105dd6103cd565b5b60006105ec848285016105b3565b91505092915050565b600081519050919050565b600082825260208201905092915050565b60005b8381101561062f578082015181840152602081019050610614565b8381111561063e576000848401525b50505050565b600061064f826105f5565b6106598185610600565b9350610669818560208601610611565b610672816103e1565b840191505092915050565b600060208201905081810360008301526106978184610644565b905092915050565b600081905092915050565b60006106b5826105f5565b6106bf818561069f565b93506106cf818560208601610611565b80840191505092915050565b60006106e782846106aa565b915081905092915050565b7f4e487b7100000000000000000000000000000000000000000000000000000000600052602260045260246000fd5b6000600282049050600182168061073957607f821691505b60208210810361074c5761074b6106f2565b5b50919050565b7f4e487b7100000000000000000000000000000000000000000000000000000000600052601160045260246000fd5b600061078c8261038f565b91506107978361038f565b9250827fffffffffffffffffffffffffffffffffffffffffffffffffffffffffffffffff038211156107cc576107cb610752565b5b828201905092915050565b60006107e28261038f565b91507fffffffffffffffffffffffffffffffffffffffffffffffffffffffffffffffff820361081457610813610752565b5b600182019050919050565b7f46696c652055706c6f6164656400000000000000000000000000000000000000600082015250565b6000610855600d83610600565b91506108608261081f565b602082019050919050565b600073ffffffffffffffffffffffffffffffffffffffff82169050919050565b60006108968261086b565b9050919050565b6108a68161088b565b82525050565b600060408201905081810360008301526108c581610848565b90506108d4602083018461089d565b9291505056fea2646970667358221220acaa9da0fca8c567572aea2a272fa77fb25d53b5abb741fce8751e9fbf981e1364736f6c634300080e0033",
  "immutableReferences": {},
  "source": "// SPDX-License-Identifier: MIT\npragma solidity >=0.4.22 <0.9.0;\n\ncontract ContractHash{\n\n    uint256 public count; // number of files stored in the blockchain\n    mapping (uint256 => string) HashList; // mapping to retrive a hash from serial number\n    mapping (string => uint256) FileNoList; // mapping to retrive the serial number from the hash\n    // using bidirectional mapping to ensure that hash and serial number can be retrieved at any time\n\n    constructor() {\n        count = 0;\n    }\n\n    event FileUploadedEvent(string action, address uploader);\n\n    function getHash(uint256 fileNo) public view returns (string memory){\n        return HashList[fileNo];\n    }\n\n    function getFileNo(string memory Hash) public view returns (uint256){\n        return FileNoList[Hash];\n    }\n\n    function checkFile(string memory Hash) public view returns (bool){\n        if(FileNoList[Hash] > 0) return true;\n        else return false;\n    }\n\n    function uploadFile(string memory fileHash) public {\n        HashList[count+1] = fileHash;\n        FileNoList[fileHash] = count+1;\n        count++;\n        emit FileUploadedEvent(\"File Uploaded\", msg.sender);\n    }\n}",
  "sourcePath": "/Users/premrajendran/Desktop/SmartBlocks/contracts/ContractHash.sol",
  "compiler": {
    "name": "solc",
    "version": "0.8.14+commit.80d49f37.Emscripten.clang"
  },
  "schemaVersion": "3.4.7",
  "updatedAt": "2022-06-13T12:51:49.018Z",
  "networkType": "ethereum",
  "devdoc": {
    "kind": "dev",
    "methods": {},
    "version": 1
  },
  "userdoc": {
    "kind": "user",
    "methods": {},
    "version": 1
  }
}