{
  "contractName": "ContractHash",
  "abi": [
    {
      "inputs": [],
      "stateMutability": "nonpayable",
      "type": "constructor"
    },
    {
      "inputs": [],
      "name": "count",
      "outputs": [
        {
          "internalType": "uint256",
          "name": "",
          "type": "uint256"
        }
      ],
      "stateMutability": "view",
      "type": "function",
      "constant": true
    },
    {
      "inputs": [
        {
          "internalType": "uint256",
          "name": "fileNo",
          "type": "uint256"
        }
      ],
      "name": "getHash",
      "outputs": [
        {
          "internalType": "string",
          "name": "",
          "type": "string"
        }
      ],
      "stateMutability": "view",
      "type": "function",
      "constant": true
    },
    {
      "inputs": [
        {
          "internalType": "uint256",
          "name": "fileNo",
          "type": "uint256"
        }
      ],
      "name": "getFileName",
      "outputs": [
        {
          "internalType": "string",
          "name": "",
          "type": "string"
        }
      ],
      "stateMutability": "view",
      "type": "function",
      "constant": true
    },
    {
      "inputs": [
        {
          "internalType": "string",
          "name": "Hash",
          "type": "string"
        }
      ],
      "name": "getFileNo",
      "outputs": [
        {
          "internalType": "uint256",
          "name": "",
          "type": "uint256"
        }
      ],
      "stateMutability": "view",
      "type": "function",
      "constant": true
    },
    {
      "inputs": [
        {
          "internalType": "string",
          "name": "Hash",
          "type": "string"
        }
      ],
      "name": "checkFile",
      "outputs": [
        {
          "internalType": "bool",
          "name": "",
          "type": "bool"
        }
      ],
      "stateMutability": "view",
      "type": "function",
      "constant": true
    },
    {
      "inputs": [
        {
          "internalType": "string",
          "name": "fileHash",
          "type": "string"
        },
        {
          "internalType": "string",
          "name": "fileName",
          "type": "string"
        }
      ],
      "name": "uploadFile",
      "outputs": [
        {
          "internalType": "bool",
          "name": "",
          "type": "bool"
        }
      ],
      "stateMutability": "nonpayable",
      "type": "function"
    }
  ],
  "bytecode": "0x608060405234801561001057600080fd5b5060008081905550610a11806100276000396000f3fe608060405234801561001057600080fd5b50600436106100625760003560e01c806306661abd1461006757806312df278f146100855780636b2fafa9146100b5578063983a7008146100e5578063996d50bf14610115578063ed7c238d14610145575b600080fd5b61006f610175565b60405161007c91906104ec565b60405180910390f35b61009f600480360381019061009a9190610661565b61017b565b6040516100ac91906106c5565b60405180910390f35b6100cf60048036038101906100ca919061070c565b6101b6565b6040516100dc91906107c1565b60405180910390f35b6100ff60048036038101906100fa9190610661565b61025e565b60405161010c91906104ec565b60405180910390f35b61012f600480360381019061012a91906107e3565b610286565b60405161013c91906106c5565b60405180910390f35b61015f600480360381019061015a919061070c565b610388565b60405161016c91906107c1565b60405180910390f35b60005481565b60008060028360405161018e9190610897565b90815260200160405180910390205411156101ac57600190506101b1565b600090505b919050565b60606001600083815260200190815260200160002060010180546101d9906108dd565b80601f0160208091040260200160405190810160405280929190818152602001828054610205906108dd565b80156102525780601f1061022757610100808354040283529160200191610252565b820191906000526020600020905b81548152906001019060200180831161023557829003601f168201915b50505050509050919050565b60006002826040516102709190610897565b9081526020016040518091039020549050919050565b60008015156102948461017b565b15150361037d57604051806060016040528060016000546102b5919061093d565b8152602001848152602001838152506001600060016000546102d7919061093d565b815260200190815260200160002060008201518160000155602082015181600101908051906020019061030b929190610430565b506040820151816002019080519060200190610328929190610430565b50905050600160005461033b919061093d565b60028460405161034b9190610897565b90815260200160405180910390208190555060008081548092919061036f90610993565b919050555060019050610382565b600090505b92915050565b60606001600083815260200190815260200160002060020180546103ab906108dd565b80601f01602080910402602001604051908101604052809291908181526020018280546103d7906108dd565b80156104245780601f106103f957610100808354040283529160200191610424565b820191906000526020600020905b81548152906001019060200180831161040757829003601f168201915b50505050509050919050565b82805461043c906108dd565b90600052602060002090601f01602090048101928261045e57600085556104a5565b82601f1061047757805160ff19168380011785556104a5565b828001600101855582156104a5579182015b828111156104a4578251825591602001919060010190610489565b5b5090506104b291906104b6565b5090565b5b808211156104cf5760008160009055506001016104b7565b5090565b6000819050919050565b6104e6816104d3565b82525050565b600060208201905061050160008301846104dd565b92915050565b6000604051905090565b600080fd5b600080fd5b600080fd5b600080fd5b6000601f19601f8301169050919050565b7f4e487b7100000000000000000000000000000000000000000000000000000000600052604160045260246000fd5b61056e82610525565b810181811067ffffffffffffffff8211171561058d5761058c610536565b5b80604052505050565b60006105a0610507565b90506105ac8282610565565b919050565b600067ffffffffffffffff8211156105cc576105cb610536565b5b6105d582610525565b9050602081019050919050565b82818337600083830152505050565b60006106046105ff846105b1565b610596565b9050828152602081018484840111156106205761061f610520565b5b61062b8482856105e2565b509392505050565b600082601f8301126106485761064761051b565b5b81356106588482602086016105f1565b91505092915050565b60006020828403121561067757610676610511565b5b600082013567ffffffffffffffff81111561069557610694610516565b5b6106a184828501610633565b91505092915050565b60008115159050919050565b6106bf816106aa565b82525050565b60006020820190506106da60008301846106b6565b92915050565b6106e9816104d3565b81146106f457600080fd5b50565b600081359050610706816106e0565b92915050565b60006020828403121561072257610721610511565b5b6000610730848285016106f7565b91505092915050565b600081519050919050565b600082825260208201905092915050565b60005b83811015610773578082015181840152602081019050610758565b83811115610782576000848401525b50505050565b600061079382610739565b61079d8185610744565b93506107ad818560208601610755565b6107b681610525565b840191505092915050565b600060208201905081810360008301526107db8184610788565b905092915050565b600080604083850312156107fa576107f9610511565b5b600083013567ffffffffffffffff81111561081857610817610516565b5b61082485828601610633565b925050602083013567ffffffffffffffff81111561084557610844610516565b5b61085185828601610633565b9150509250929050565b600081905092915050565b600061087182610739565b61087b818561085b565b935061088b818560208601610755565b80840191505092915050565b60006108a38284610866565b915081905092915050565b7f4e487b7100000000000000000000000000000000000000000000000000000000600052602260045260246000fd5b600060028204905060018216806108f557607f821691505b602082108103610908576109076108ae565b5b50919050565b7f4e487b7100000000000000000000000000000000000000000000000000000000600052601160045260246000fd5b6000610948826104d3565b9150610953836104d3565b9250827fffffffffffffffffffffffffffffffffffffffffffffffffffffffffffffffff038211156109885761098761090e565b5b828201905092915050565b600061099e826104d3565b91507fffffffffffffffffffffffffffffffffffffffffffffffffffffffffffffffff82036109d0576109cf61090e565b5b60018201905091905056fea2646970667358221220617267550abe4ee06703bd4c1f023a134ffddb41bced5a29419eb694ebf6933264736f6c634300080e0033",
  "immutableReferences": {},
  "source": "// SPDX-License-Identifier: MIT\npragma solidity >=0.4.22 <0.9.0;\n\ncontract ContractHash{\n\n    uint256 public count; // number of files stored in the blockchain\n\n    struct File {\n        uint256 serialNo;\n        string Hash;\n        string FileName;\n    }\n\n    mapping (uint256 => File) HashList; // mapping to retrive a hash from serial number\n    mapping (string => uint256) FileNoList; // mapping to retrive the serial number from the hash\n    // using bidirectional mapping to ensure that hash and serial number can be retrieved at any time\n\n    constructor() {\n        count = 0;\n    }\n\n    function getHash(uint256 fileNo) public view returns (string memory){\n        return HashList[fileNo].Hash;\n    }\n\n    function getFileName(uint256 fileNo) public view returns (string memory){\n        return HashList[fileNo].FileName;\n    }\n\n    function getFileNo(string memory Hash) public view returns (uint256){\n        return FileNoList[Hash];\n    }\n\n    function checkFile(string memory Hash) public view returns (bool){\n        if(FileNoList[Hash] > 0) return true;\n        else return false;\n    }\n\n    function uploadFile(string memory fileHash, string memory fileName) public returns (bool) {\n        //uploading the hash only if the file hasn't already been uploaded\n        if(checkFile(fileHash)==false){\n            HashList[count+1] = File(count+1,fileHash,fileName);\n            FileNoList[fileHash] = count+1;\n            count++;\n            return true;\n        }\n        else {\n            return false;\n        }\n    }\n}",
  "sourcePath": "/Users/premrajendran/Desktop/SmartBlocks/SmartBlocks/contracts/ContractHash.sol",
  "compiler": {
    "name": "solc",
    "version": "0.8.14+commit.80d49f37.Emscripten.clang"
  },
  "schemaVersion": "3.4.7",
  "updatedAt": "2022-06-15T12:54:09.458Z",
  "networkType": "ethereum",
  "devdoc": {
    "kind": "dev",
    "methods": {},
    "version": 1
  },
  "userdoc": {
    "kind": "user",
    "methods": {},
    "version": 1
  }
}