{
  "contractName": "ContractHash",
  "abi": [
    {
      "inputs": [],
      "stateMutability": "nonpayable",
      "type": "constructor"
    },
    {
      "anonymous": false,
      "inputs": [
        {
          "indexed": false,
          "internalType": "string",
          "name": "action",
          "type": "string"
        }
      ],
      "name": "FileAlreadyExistsEvent",
      "type": "event"
    },
    {
      "anonymous": false,
      "inputs": [
        {
          "indexed": false,
          "internalType": "string",
          "name": "action",
          "type": "string"
        }
      ],
      "name": "FileUploadedEvent",
      "type": "event"
    },
    {
      "inputs": [],
      "name": "count",
      "outputs": [
        {
          "internalType": "uint256",
          "name": "",
          "type": "uint256"
        }
      ],
      "stateMutability": "view",
      "type": "function",
      "constant": true
    },
    {
      "inputs": [
        {
          "internalType": "uint256",
          "name": "fileNo",
          "type": "uint256"
        }
      ],
      "name": "getHash",
      "outputs": [
        {
          "internalType": "string",
          "name": "",
          "type": "string"
        }
      ],
      "stateMutability": "view",
      "type": "function",
      "constant": true
    },
    {
      "inputs": [
        {
          "internalType": "uint256",
          "name": "fileNo",
          "type": "uint256"
        }
      ],
      "name": "getFileName",
      "outputs": [
        {
          "internalType": "string",
          "name": "",
          "type": "string"
        }
      ],
      "stateMutability": "view",
      "type": "function",
      "constant": true
    },
    {
      "inputs": [
        {
          "internalType": "string",
          "name": "Hash",
          "type": "string"
        }
      ],
      "name": "getFileNo",
      "outputs": [
        {
          "internalType": "uint256",
          "name": "",
          "type": "uint256"
        }
      ],
      "stateMutability": "view",
      "type": "function",
      "constant": true
    },
    {
      "inputs": [
        {
          "internalType": "string",
          "name": "Hash",
          "type": "string"
        }
      ],
      "name": "checkFile",
      "outputs": [
        {
          "internalType": "bool",
          "name": "",
          "type": "bool"
        }
      ],
      "stateMutability": "view",
      "type": "function",
      "constant": true
    },
    {
      "inputs": [
        {
          "internalType": "string",
          "name": "fileHash",
          "type": "string"
        },
        {
          "internalType": "string",
          "name": "fileName",
          "type": "string"
        }
      ],
      "name": "uploadFile",
      "outputs": [],
      "stateMutability": "nonpayable",
      "type": "function"
    }
  ],
  "bytecode": "0x608060405234801561001057600080fd5b5060008081905550610b5a806100276000396000f3fe608060405234801561001057600080fd5b50600436106100625760003560e01c806306661abd1461006757806312df278f146100855780636b2fafa9146100b5578063983a7008146100e5578063996d50bf14610115578063ed7c238d14610131575b600080fd5b61006f610161565b60405161007c9190610537565b60405180910390f35b61009f600480360381019061009a91906106ac565b610167565b6040516100ac9190610710565b60405180910390f35b6100cf60048036038101906100ca9190610757565b6101a2565b6040516100dc919061080c565b60405180910390f35b6100ff60048036038101906100fa91906106ac565b61024a565b60405161010c9190610537565b60405180910390f35b61012f600480360381019061012a919061082e565b610272565b005b61014b60048036038101906101469190610757565b6103d3565b604051610158919061080c565b60405180910390f35b60005481565b60008060028360405161017a91906108e2565b9081526020016040518091039020541115610198576001905061019d565b600090505b919050565b60606001600083815260200190815260200160002060010180546101c590610928565b80601f01602080910402602001604051908101604052809291908181526020018280546101f190610928565b801561023e5780601f106102135761010080835404028352916020019161023e565b820191906000526020600020905b81548152906001019060200180831161022157829003601f168201915b50505050509050919050565b600060028260405161025c91906108e2565b9081526020016040518091039020549050919050565b6000151561027f83610167565b15150361039957604051806060016040528060016000546102a09190610988565b8152602001838152602001828152506001600060016000546102c29190610988565b81526020019081526020016000206000820151816000015560208201518160010190805190602001906102f692919061047b565b50604082015181600201908051906020019061031392919061047b565b5090505060016000546103269190610988565b60028360405161033691906108e2565b90815260200160405180910390208190555060008081548092919061035a906109de565b91905055507f21a22d48994b8e9dabb9fb8053acb036a4e710256199d513817bc2e561dd553d60405161038c90610a72565b60405180910390a16103cf565b7f63787c4402facf500cb9fa0b1b87233f3bb5e2a151c00a38e33ecc360dd0fbf26040516103c690610b04565b60405180910390a15b5050565b60606001600083815260200190815260200160002060020180546103f690610928565b80601f016020809104026020016040519081016040528092919081815260200182805461042290610928565b801561046f5780601f106104445761010080835404028352916020019161046f565b820191906000526020600020905b81548152906001019060200180831161045257829003601f168201915b50505050509050919050565b82805461048790610928565b90600052602060002090601f0160209004810192826104a957600085556104f0565b82601f106104c257805160ff19168380011785556104f0565b828001600101855582156104f0579182015b828111156104ef5782518255916020019190600101906104d4565b5b5090506104fd9190610501565b5090565b5b8082111561051a576000816000905550600101610502565b5090565b6000819050919050565b6105318161051e565b82525050565b600060208201905061054c6000830184610528565b92915050565b6000604051905090565b600080fd5b600080fd5b600080fd5b600080fd5b6000601f19601f8301169050919050565b7f4e487b7100000000000000000000000000000000000000000000000000000000600052604160045260246000fd5b6105b982610570565b810181811067ffffffffffffffff821117156105d8576105d7610581565b5b80604052505050565b60006105eb610552565b90506105f782826105b0565b919050565b600067ffffffffffffffff82111561061757610616610581565b5b61062082610570565b9050602081019050919050565b82818337600083830152505050565b600061064f61064a846105fc565b6105e1565b90508281526020810184848401111561066b5761066a61056b565b5b61067684828561062d565b509392505050565b600082601f83011261069357610692610566565b5b81356106a384826020860161063c565b91505092915050565b6000602082840312156106c2576106c161055c565b5b600082013567ffffffffffffffff8111156106e0576106df610561565b5b6106ec8482850161067e565b91505092915050565b60008115159050919050565b61070a816106f5565b82525050565b60006020820190506107256000830184610701565b92915050565b6107348161051e565b811461073f57600080fd5b50565b6000813590506107518161072b565b92915050565b60006020828403121561076d5761076c61055c565b5b600061077b84828501610742565b91505092915050565b600081519050919050565b600082825260208201905092915050565b60005b838110156107be5780820151818401526020810190506107a3565b838111156107cd576000848401525b50505050565b60006107de82610784565b6107e8818561078f565b93506107f88185602086016107a0565b61080181610570565b840191505092915050565b6000602082019050818103600083015261082681846107d3565b905092915050565b600080604083850312156108455761084461055c565b5b600083013567ffffffffffffffff81111561086357610862610561565b5b61086f8582860161067e565b925050602083013567ffffffffffffffff8111156108905761088f610561565b5b61089c8582860161067e565b9150509250929050565b600081905092915050565b60006108bc82610784565b6108c681856108a6565b93506108d68185602086016107a0565b80840191505092915050565b60006108ee82846108b1565b915081905092915050565b7f4e487b7100000000000000000000000000000000000000000000000000000000600052602260045260246000fd5b6000600282049050600182168061094057607f821691505b602082108103610953576109526108f9565b5b50919050565b7f4e487b7100000000000000000000000000000000000000000000000000000000600052601160045260246000fd5b60006109938261051e565b915061099e8361051e565b9250827fffffffffffffffffffffffffffffffffffffffffffffffffffffffffffffffff038211156109d3576109d2610959565b5b828201905092915050565b60006109e98261051e565b91507fffffffffffffffffffffffffffffffffffffffffffffffffffffffffffffffff8203610a1b57610a1a610959565b5b600182019050919050565b7f46696c652055706c6f61646564205375636365737366756c6c79000000000000600082015250565b6000610a5c601a8361078f565b9150610a6782610a26565b602082019050919050565b60006020820190508181036000830152610a8b81610a4f565b9050919050565b7f46696c6520416c72656164792045786973747320696e20426c6f636b6368616960008201527f6e00000000000000000000000000000000000000000000000000000000000000602082015250565b6000610aee60218361078f565b9150610af982610a92565b604082019050919050565b60006020820190508181036000830152610b1d81610ae1565b905091905056fea264697066735822122064662e1e5e41be823618ea5a80990febfeba372324b567ade9c652c008008eec64736f6c634300080e0033",
  "immutableReferences": {},
  "source": "// SPDX-License-Identifier: MIT\npragma solidity >=0.4.22 <0.9.0;\n\ncontract ContractHash{\n\n    uint256 public count; // number of files stored in the blockchain\n\n    struct File {\n        uint256 serialNo;\n        string Hash;\n        string FileName;\n    }\n\n    event FileUploadedEvent(string action);\n    event FileAlreadyExistsEvent(string action);\n\n    mapping (uint256 => File) HashList; // mapping to retrive a hash from serial number\n    mapping (string => uint256) FileNoList; // mapping to retrive the serial number from the hash\n    // using bidirectional mapping to ensure that hash and serial number can be retrieved at any time\n\n    constructor() {\n        count = 0;\n    }\n\n    function getHash(uint256 fileNo) public view returns (string memory){\n        return HashList[fileNo].Hash;\n    }\n\n    function getFileName(uint256 fileNo) public view returns (string memory){\n        return HashList[fileNo].FileName;\n    }\n\n    function getFileNo(string memory Hash) public view returns (uint256){\n        return FileNoList[Hash];\n    }\n\n    function checkFile(string memory Hash) public view returns (bool){\n        if(FileNoList[Hash] > 0) return true;\n        else return false;\n    }\n\n    function uploadFile(string memory fileHash, string memory fileName) public {\n        //uploading the hash only if the file hasn't already been uploaded\n        if(checkFile(fileHash)==false){\n            HashList[count+1] = File(count+1,fileHash,fileName);\n            FileNoList[fileHash] = count+1;\n            count++;\n            emit FileUploadedEvent(\"File Uploaded Successfully\");\n        }\n        else {\n            emit FileAlreadyExistsEvent(\"File Already Exists in Blockchain\");\n        }\n    }\n}",
  "sourcePath": "/Users/premrajendran/Desktop/SmartBlocks/contracts/ContractHash.sol",
  "compiler": {
    "name": "solc",
    "version": "0.8.14+commit.80d49f37.Emscripten.clang"
  },
  "schemaVersion": "3.4.7",
  "updatedAt": "2022-06-16T10:53:45.857Z",
  "networkType": "ethereum",
  "devdoc": {
    "kind": "dev",
    "methods": {},
    "version": 1
  },
  "userdoc": {
    "kind": "user",
    "methods": {},
    "version": 1
  }
}